:10000000180100201D0D0000890D0000910D000059
:10001000990D0000990D0000990D000000000000EE
:10002000000000000000000000000000990D00002A
:10003000990D000000000000990D0000990D0000CE
:10004000990D0000990D0000990D0000990D000018
:10005000990D0000990D0000990D0000990D000008
:10006000990D0000990D0000990D0000990D0000F8
:10007000990D0000990D0000990D0000990D0000E8
:10008000990D0000990D0000990D0000990D0000D8
:10009000990D0000990D0000990D0000990D0000C8
:1000A000990D0000990D0000990D0000990D0000B8
:1000B000990D0000990D0000990D0000990D0000A8
:1000C000990D0000990D0000990D0000990D000098
:1000D000990D0000990D0000990D0000990D000088
:1000E000990D00000000000000000000990D0000C4
:1000F000990D0000990D0000990D0000990D000068
:10010000990D0000990D0000990D0000990D000057
:100110000000000000000000990D0000990D000093
:10012000990D0000990D0000990D0000990D000037
:10013000990D0000990D0000990D0000990D000027
:1001400000000000000000000000000000000000AF
:10015000990D0000990D0000990D0000990D000007
:10016000000000000000000000000000000000008F
:10017000000000000000000000000000000000007F
:10018000000000000000000000000000000000006F
:10019000000000000000000000000000000000005F
:1001A000000000000000000000000000000000004F
:1001B000990D0000990D0000990D0000990D0000A7
:1001C000990D0000990D0000990D0000990D000097
:1001D000990D0000990D0000990D0000990D000087
:1001E000990D0000990D0000990D0000000000001D
:1001F00000000000990D0000990D0000990D00000D
:10020000990D0000990D00000000000000000000A2
:10021000990D0000990D0000990D0000990D000046
:10022000990D0000990D0000990D0000990D000036
:10023000990D0000990D0000990D0000990D000026
:10024000990D0000990D0000990D0000990D000016
:10025000990D0000990D0000990D0000990D000006
:10026000990D0000990D0000990D000080B483B035
:1002700000AF244A234B1B6843F001031360214A5B
:10028000204B1B6843F0080313601E4A1D4B1B687C
:1002900043F0100313601B4B1B687B601A4B00225A
:1002A0001A601A4B00221A60194BAB221A60194BC4
:1002B00000221A60184BFF221A60184B00221A60A5
:1002C000174B00221A60174BBB221A60164B0022F4
:1002D0001A60164BFF221A60154B00221A60154B4C
:1002E00000221A60144BEB221A60144B00221A6091
:1002F000134BFF221A6000BF0C37BD465DF8047B2C
:10030000704700BF08E10F40284500402C450040E1
:1003100000440040204400401C4500402875004037
:100320002C75004000740040207400401C75004093
:10033000284502402C45024000440240204402402F
:100340001C45024080B500AF3E4800F0E9FDFF21AA
:100350003D4800F0D7FD4CF2503000F0F2FD002295
:100360000121394800F0CBFD3022F021364800F061
:10037000C6FD02220221344800F0C1FD0A2000F02F
:10038000E0FD00220221304800F0B9FD4CF250306F
:1003900000F0D7FD3022F0212B4800F0B0FD022202
:1003A0000221294800F0ABFD0A2000F0CAFD00221E
:1003B0000221254800F0A3FD4CF2503000F0C1FDB1
:1003C0003022F021204800F09AFD022202211E482E
:1003D00000F095FD0A2000F0B4FD002202211A4829
:1003E00000F08DFD4CF2503000F0ABFD2022F021EA
:1003F000154800F084FD02220221134800F07FFD21
:100400000A2000F09EFD002202210F4800F077FD37
:100410004CF2503000F095FD00F04CF800212820FF
:1004200000F06CF80021062000F068F80021802020
:1004300000F064F800210C2000F060F800F03AF8B9
:1004400000BF80BD010800F00050004080B582B0C0
:1004500000AF03460A46FB711346BB7197F907309C
:10046000012B10D197F906305A1E114B1340002B67
:1004700003DA013B63F00F03013380330021184698
:1004800000F03CF80FE097F906305A1E084B134075
:10049000002B03DA013B63F00F030133C03300216B
:1004A000184600F02BF800BF0837BD4680BD00BFDE
:1004B0000F00008080B500AF0021012000F01EF881
:1004C0000A2000F03EFD00BF80BD00BF80B582B0B5
:1004D00000AF786008E07B685A1C7A6093F90030BE
:1004E0000121184600F00AF87B6893F90030002BD0
:1004F000F1D100BF0837BD4680BD00BF80B582B0D6
:1005000000AF03463960FB71FB7923F00F03DBB2C8
:100510001A46F021264800F0F2FC3B68012B05D179
:1005200001220121224800F0EAFC04E0002201211E
:100530001F4800F0E4FC022202211D4800F0DFFC0D
:100540000A2000F0FEFC00220221194800F0D7FC2E
:100550004CF2503000F0F5FCFB791B01DBB21A467F
:10056000F021134800F0CBFC3B68012B05D10122A0
:1005700001210F4800F0C3FC04E0002201210C48D7
:1005800000F0BDFC02220221094800F0B8FC0A205C
:1005900000F0D7FC00220221054800F0B0FC4CF22C
:1005A000503000F0CEFC00BF0837BD4680BD00BF14
:1005B0000050004080B582B000AF786039607B6841
:1005C000C44A82FB0312D210DB17D31AC24A13604B
:1005D0007A68C04B83FB0213D910D317C91A0B4694
:1005E0009B000B449B00D31A7B60BB4B1B68002B0A
:1005F00019DD3968786800F0E3F901210220FFF77E
:1006000025FFB54B1B68184600F0BEF902210220F9
:10061000FFF71CFFB148FFF759FF00F025FD034627
:10062000184600F08EFC7B68AA4A82FB03129210E7
:10063000DB17D31AAA4A13607A68A64B83FB02130E
:100640009910D317C91A0B469B000B445B00D31AB1
:100650007B60A34B1B68002B19DD3968786800F0BC
:10066000AFF901210220FFF7F1FE9D4B1B681846F0
:1006700000F08AF902210220FFF7E8FE9948FFF70F
:1006800025FF00F0F1FC0346184600F05AFC7B6899
:10069000904A82FB03125210DB17D31A924A13605E
:1006A0007A688C4B83FB02135910D317C91A0B4677
:1006B0009B000B44D31A7B608B4B1B68002B19DD0E
:1006C0003968786800F07CF901210220FFF7BEFE4E
:1006D000854B1B68184600F057F902210220FFF7EE
:1006E000B5FE8248FFF7F2FE00F0BEFC0346184656
:1006F00000F027FC7E4A7B68136000237B607C4B04
:100700001B68002B19DD3968786800F059F9012160
:100710000220FFF79BFE764B1B68184600F034F969
:1007200002210220FFF792FE7248FFF7CFFE00F091
:100730009BFC0346184600F004FC3B686E4A82FBB3
:1007400003121211DB17D31A6C4A13603B686A4A12
:1007500082FB03121111DA178A1A322101FB02F20D
:100760009B1A3B60654B1B68002B19DD3968786864
:1007700000F026F901210220FFF768FE5F4B1B689D
:10078000184600F001F902210220FFF75FFE5C48E5
:10079000FFF79CFE00F068FC0346184600F0D1FB12
:1007A0003B68554A82FB0312D210DB17D31A554A15
:1007B00013603A68504B83FB0213D910D317C91A40
:1007C0000B469B000B4499000B44D31A3B604D4BE6
:1007D0001B68002B19DD3968786800F0F1F80121F9
:1007E0000220FFF733FE474B1B68184600F0CCF899
:1007F00002210220FFF72AFE4348FFF767FE00F0C0
:1008000033FC0346184600F09CFB3B68314A82FBF0
:1008100003129210DB17D31A3C4A13603A682D4B2F
:1008200083FB02139910D317C91A0B469B000B4484
:100830005B00D31A3B60354B1B68002B19DD396810
:10084000786800F0BDF801210220FFF7FFFD2F4B73
:100850001B68184600F098F802210220FFF7F6FD09
:100860002B48FFF733FE00F0FFFB0346184600F06D
:1008700068FB3B68174A82FB03125210DB17D31A3E
:10088000244A13603A68134B83FB02135910D317A1
:10089000C91A0B469B000B44D31A3B601D4B1B68C7
:1008A000002B3FDD3968786800F08AF801210220CA
:1008B000FFF7CCFD174B1B68184600F065F80221C6
:1008C0000220FFF7C3FD1448FFF700FE00F0CCFB49
:1008D00024E000BF67666666200100204C1200001D
:1008E0002C010020581200001801002064120000A2
:1008F00028010020701200001F85EB5138010020F4
:100900007C12000030010020881200001C01002031
:100910009812000034010020A4120000034618467B
:1009200000F00FFB164A3B68136000233B60144B3A
:100930001B68002B19DD3968786800F041F8012147
:100940000220FFF783FD0E4B1B68184600F01CF8D1
:1009500002210220FFF77AFD0A48FFF7B7FD00F0F9
:1009600083FB0346184600F0ECFA00F07DFB0346DB
:10097000184600F0E6FA00BF0837BD4680BD00BF4C
:1009800024010020B012000080B584B000AF786070
:1009900000F06AFB0346DB08184600F0D2FA07F1C4
:1009A00008030A221946786800F00CFC07F10803D6
:1009B0001846FFF78BFD00BF1037BD4680BD00BF56
:1009C00080B582B000AF78603960FFF773FD7B6857
:1009D000002B12D07B68092B07DC0D210120FFF7CB
:1009E00035FD7868FFF7D0FF11E00C210120FFF7FB
:1009F0002DFD7868FFF7C8FF09E07B68002B06D162
:100A00000C210120FFF722FD1A48FFF75FFD0E21A0
:100A10000120FFF71BFD1848FFF758FD3B68002B2E
:100A200019D03B68092B0EDC0E210120FFF70EFDCB
:100A30001248FFF74BFD10210120FFF707FD386832
:100A4000FFF7A2FF11E00F210120FFF7FFFC38683C
:100A5000FFF79AFF09E03B68002B06D10E21012029
:100A6000FFF7F4FC0348FFF731FD00BF0837BD4630
:100A700080BD00BFBC120000C0120000C412000004
:100A800080B500AF994800F061FAFFF7EFFBFFF780
:100A900059FC974B1B6803F00403002B25D0944AA4
:100AA000934B1B6843F008031360924B1B68591C5F
:100AB000914B83FB01239A10CB17D21A13469B004C
:100AC00013445B00CA1A8B4B1A600C210120FFF7FC
:100AD000BDFC884B1B681846FFF756FF844A844BC1
:100AE0001B6823F008031360D3E7814B1B6803F0F6
:100AF0001003002B25D07E4A7D4B1B6843F020035A
:100B000013607E4B1B68591C7B4B83FB01239A109F
:100B1000CB17D21A13469B0013445B00CA1A774BBB
:100B20001A600D210120FFF791FC744B1B681846D9
:100B3000FFF72AFF6E4A6E4B1B6823F020031360F9
:100B4000A7E76B4B1B6803F04003002B13D0684AE8
:100B5000674B1B6843F0800313600E210120FFF7F1
:100B600075FC6748FFF7B2FC614A614B1B6823F0D4
:100B7000800313608DE7634B1B6803F00403002BB5
:100B800025D0604A5F4B1B6843F0080313605E4B3F
:100B90001B68591C584B83FB01239A10CB17D21AA0
:100BA00013469B0013445B00CA1A574B1A600F216F
:100BB0000120FFF74BFC544B1B681846FFF7E4FE7F
:100BC000504A504B1B6823F00803136061E74D4BFC
:100BD0001B6803F04003002B25D04C4A4B4B1B688D
:100BE00043F0020313604A4B1B68591C424B83FBC2
:100BF00001239A10CB17D21A13469B0013445B00B3
:100C0000CA1A434B1A6010210120FFF71FFC404B0A
:100C10001B681846FFF7B8FE3C4A3C4B1B6823F0A4
:100C20000203136035E7394B1B6803F00403002B04
:100C30003AD0364A354B1B6843F0080313602D4BFE
:100C40001A6813469B0013445B001A462B4B1B6823
:100C50001344304A13602C4B1A6813469B0013440C
:100C60005B001A462A4B1B6813442B4A1360294B1E
:100C70001A68294B1B6819461046FFF7A1FE00F0C1
:100C8000F3F90346184600F05CF9224B1A68224B30
:100C90001B6819461046FFF78DFC1C4A1B4B1B684E
:100CA00023F008031360F4E6184B1B6803F01003ED
:100CB000002B3FF4EEAE154A144B1B6843F02003A3
:100CC00013600C4B00221A600C4B00221A600E4B72
:100CD00000221A600E4B00221A60FFF7EBFB0B4A52
:100CE0000A4B1B6823F020031360D2E64005C001C5
:100CF000FC43004000000020676666660400002098
:100D0000C0120000FC73004008000020FC430240B9
:100D10000C000020100000201400002080B582B0DC
:100D200000AF134B7B60134B3B6007E03B681A1D21
:100D30003A607A68111D796012681A603B680E4A41
:100D40009342F3D30E480F494FF000028842B8BFD8
:100D500040F8042BFADB094A084B1B6843F4700384
:100D60001360FFF78DFE00BF0837BD4680BD00BF92
:100D700074130000000000200000002088ED00E057
:100D8000000000203C01002080B400AFFEE700BF5F
:100D900080B400AFFEE700BF80B400AFFEE700BF45
:100DA000D0F8003412F0010F10B500F5806414BFC4
:100DB0000B438B43236012F0020FD0F8202400F580
:100DC000846314BF114322EA0101196010BDF0B51C
:100DD000C2F34116002441FA04F5ED0711D5D0F80D
:100DE000C47F65004FF0030C0CFA05FC27EA0C07E2
:100DF000C0F8C47FD0F8C47F06FA05F53D43C0F8BB
:100E0000C45F0134082CE6D1D0F8004512F0010F80
:100E100000F5A06514BF0C438C432C60D0F804454A
:100E200012F0020F00F2045514BF0C438C432C60E7
:100E3000D0F8084512F0040F00F5A16514BF0C436B
:100E40008C432C60D0F8184512F0080F00F5A3650C
:100E500014BF0C438C432C6012F0100FD0F83C25CB
:100E600000F23C5414BF0A438A432260D0F80C2598
:100E700013F0010F00F20C5414BF0A438A4322609E
:100E8000D0F8102513F0020F00F5A26414BF0A4336
:100E90008A432260D0F8142513F0040F00F2145492
:100EA00014BF0A438A432260D0F81C2513F0080FB0
:100EB00000F21C5414BF0A438A432260D0F8442530
:100EC00013F4007F00F2445414BF0A438A432260A3
:100ED000D0F8402513F4407F00F5A86414BF0A43FE
:100EE0008A43226000F5A5621BB9D0F828050143AA
:100EF00003E0D0F8283523EA01011160F0BD40F885
:100F00002120704738B50122082305460C46FFF71B
:100F10005EFF284621460122BDE83840FFF740BF6A
:100F2000C3B2C0F30720990000F57E2341F084424C
:100F300003F5C06121F4700042EA401201231360FE
:100F4000704701387FF4FDAF704700003E4AF0B5AE
:100F50003E4D1468296824F4800343F4006341F48F
:100F6000006613602E60E50715D5C40713D460F042
:100F700001042340364C4FF48075256013604FF414
:100F80000022344C246814F4807F02D1013AF8D155
:100F900058E0002A56D023F4FE6621F000412E4B83
:100FA00021F0700242F4006500F4FE6703403E4306
:100FB00045EA030400F0080744EAC7022349224C2B
:100FC00026F40053266000F400550A60204E22F4F7
:100FD00000522B4340272A4337604EBF0A602360EC
:100FE0000A6023F0F86148BF236021F001031B4928
:100FF00001400B4322F0FC5200F0FC510A43410037
:1010000007D5174922F48002014043F480030A43C4
:1010100001E022F0804201050BD44FF40041114859
:101020000068C00701D40139F9D123F4006322F428
:10103000006205480549036010200A60BDE8F040E1
:10104000FFF77FBFF0BD00BF60E00F4070E00F40D2
:1010500058E00F4050E00F40300000800100C00712
:101060000000404068E10F403F4B19681A69002AB0
:10107000B4BF02F0700301F03003202B70B515D01F
:1010800004D853B1102B6DD1384B10E0302B0AD05F
:10109000702B67D14FF4004309E0C1F38410344B47
:1010A00053F8203003E047F2305300E0314B002A80
:1010B00002DA12F4006F01E011F4006F32D12E4D0C
:1010C0002C686D6805F01F06701C4600C5F30420EF
:1010D00001307043B3FBF0F0A305C4F3892444430B
:1010E0009B0DA40A03FB00432448006800F47040F1
:1010F000B0F5804F41F4800110D007D8B0F5005F03
:1011000013D0B0F5405F0DD11D480FE0B0F5E04FB2
:1011100006D0B0F5104F05D11A4807E01A4805E08F
:101120001A4803E04FF0FF3000E0194811F4800F37
:1011300014D0002A0DDA510005D5110503D45B0047
:10114000C2F3865201E0C2F3C552511CB3FBF1F366
:1011500004E0C1F3C352511CB3FBF1F3834238BF27
:10116000184670BD002070BD60E00F400024F40000
:10117000C812000000093D0060E10F4010E00F4080
:1011800080F0FA02002D3101005A620240787D01A0
:1011900000B4C404931E222B10D80A2A10B506D01E
:1011A00000230C46194400F00FF8204610BD00281B
:1011B000F6DA2D230B7040420123F2E7002008707D
:1011C000704700BFFFF7E6BFF0B5DFF878E01646DE
:1011D00004460F46BEE80F008BB06D460FC5BEE853
:1011E0000F000FC59EE80300B31E45F8040B222B29
:1011F000297022D87D1E2846002200E01A46B4FB42
:10120000F6F10AAB06FB114423440C4613F8283CC4
:1012100000F8013F531C0029F0D1F954BB184AB122
:10122000197815F8010F29700134111B8C4203F84D
:101230000109F5DB38460BB0F0BD002038700BB06B
:10124000F0BD00BF34130000FFF7BEBF202D207992
:1012500069726D696C696B00202D206F6E6C756B07
:1012600000000000202D206265736C696B00000097
:10127000202D206269726C696B000000202D20799E
:101280006172696D6C696B00202D206365797265F0
:101290006B6C696B00000000202D206D6574656C1F
:1012A000696B0000202D2064656C696B00000000F4
:1012B000202D206B757275736C756B0020200000FB
:1012C0002E0000002E30000040420F0000201C00C5
:1012D00080841E0000802500999E36000040380062
:1012E00000093D0000803E0000004B00404B4C00D8
:1012F00000204E00808D5B0000C05D00008070000B
:1013000000127A0000007D0080969800001BB70054
:101310000080BB00C0E8CE00647ADA000024F4004C
:101320000000FA0080A81201002D310100366E0184
:1013300040787D01303132333435363738396162A7
:10134000636465666768696A6B6C6D6E6F707172F5
:10135000737475767778797A00000000F8B500BF6D
:10136000F8BC08BC9E467047F8B500BFF8BC08BC86
:041370009E467047DE
:00000001FF
